:03000000020DC826
:0C0DC800787FE4F6D8FD75817E020E0FE6
:10000E0004AE530A57485526BD0D26500D9544464D
:10001E00AAB9056A4D09AD4224AEB604AE4A6A4D80
:10002E00BE0A4D520D25465D52BA0B544E0D6A4313
:10003E00296D37095B4B749BC10497540A4B485B7F
:10004E0025BC06A55006D4454ADAB802B64D095766
:10005E00422497B704974A664B3E0D4A510EA54669
:10006E0056D4BA05AD4E02B644393738092E4B7CFC
:10007E0096BF0C95530D4A486DA53B0B554F056A1F
:10008E00454AADB9025D4D092D422C95B60A954AE9
:10009E007B4ABD06CA510B5546555ABB04DA4E0A69
:1000AE005B43352BB8052B4C8A953F0E955206AA0D
:1000BE00487AD53C0AB54F04B6454A57390A574DCA
:1000CE000526423E93350D954975AABE056A51091E
:1000DE006D4654AEBB04AD4F0A4D434D26B70D25AC
:1000EE004B8D52BF0B54520B6A47696D3C095B50E6
:1000FE00049B454A4BB90A4B4DAB25C206A5540687
:10010E00D4496ADA3D0AB6510937465497BB04976B
:10011E004F064B4436A5370EA54A86B2BF05AC53E3
:10012E000AB6475936BC092E500C96454D4AB80DA5
:10013E004A4C0DA54125AAB6056A497AADBD025DA8
:10014E0052092D475C95BA0A954E0B4A434B5537CB
:10015E000AD54A955ABF04BA530A5B48652BBC05AB
:10016E002B500A9345474AB906AA4C0AD54124DAC0
:10017E00B604B64A69573D0A4E510D26465E933A6D
:10018E000D534D05AA4336B537096D4BB4AEBF04BA
:10019E00AD530A4D486D25BC0D254F0D52445DAA39
:1001AE00380B5A4C056D4124ADB6049B4A7A4BBEB2
:1001BE000A4B510AA5465B52BA06D24E0ADA4235AE
:1001CE005B3709374B8497C1049753064B4866A596
:1001DE003C0EA54F06B2444AB6380AAE4C092E4222
:1001EE003C97350C96497D4ABD0D4A510DA5455596
:1001FE00AABA056A4E0A6D43452EB7052D4B8A9550
:10020E00BF0A95530B4A476B553B0AD54F055A45C6
:10021E004A5D380A5B4C052B423A93B606934977F2
:10022E0029BD06AA510AD54654DABA04B64E0A5763
:10023E00434527380D264A8E933E0D52520DAA473E
:10024E0066B53B056D4F04AE454A4EB90A4D4C0D91
:10025E0015412D92B50000001F003B005A0078009A
:10026E009700B500D400F301110130014E3F065B3B
:10027E004F666D7D077F6FBF86DBCFE6EDFD87FF97
:10028E00EFFBF7EFDFBF7F1F1C1F1E1F1E1F1F1E62
:03029E001F1E1F01
:100F36000E6B0000000000000007000A000100130D
:100F4600C180C10AC103C107C10BC108C109015C47
:100F560000C101C102C104C105C1060165121E23FB
:100F6600010901010001020002020002020103035D
:100F760000030202040400040203050500050159EA
:100F860018015B00015E000A480000000000000036
:030F960000000058
:0613C000C2A7C2A5D2A7DE
:1013C600E4FEC2A6EF30E004D2A68002C2A6EFC3B6
:0C13D60013FFC2A5D2A50EBE08E8C2A5F8
:0113E20022E8
:10145400E4FFFEEFC313FF30A603430780D2A5C207
:07146400A50EBE08EEC2A5B3
:01146B00225E
:101401001213C0ED75F00A84C454F0FFED75F00AB3
:0D14110084E5F04FFF1213C6C2A5C2A7224A
:10141E001213C0121454C2A5C2A7EFC4540FFEEF8C
:0A142E00540FFFEE75F00AA42FFF23
:011438002291
:10131E007C80E4FD7F8E121401E4FBEB25E0246B50
:10132E00F808E6FDAF041214010C0C0BBB07EC7DA4
:0D133E00A67F901214017D807F8E021401A5
:101439007D81E4FCAF0512141EEC25E0246BF876DF
:0A1449000008A6070D0D0CBC07EA11
:011453002276
:1013E300D3EF9400EE940040147D6E7C00ED1D70ED
:0D13F300011CED4C70F7EF1F70E61E80E34B
:0114000022C9
:10105F007590FF7F037E001213E3AF90EFF4604AA9
:10106F007F067E001213E3AF90EFF4603DE590B47E
:10107F00FFFBEF2481603024C0602924E06022242C
:10108F00F0601B24F8601424FC600D24FE6006142D
:10109F0070187F01227F02227F03227F04227F05A7
:0C10AF00227F06227F07227F08227F009C
:0110BB002212
:0810BC00AF0E7E00AD12AC1175
:0810C4008C138D14AB07AA0682
:1010CC00EB2403FFE43AFEEF7803CEC313CE13D820
:1010DC00F9FFEB2403FDE43AED5407FE7480A806F7
:1010EC00088002C313D8FCFEEF7C002514FDEC3500
:1010FC0013FC740E2DF58274003CF583E4935206B8
:06110C00EE7002C322D3C5
:0111120022BA
:0602A1008F098B0AA9057C
:1002A700EF24FFF512E434FFF51174642512F512FB
:1002B700E43511F511FEAF127C007D031206398E6D
:1002C700118F1274102FF58274003EF583E493FEAC
:1002D7005460FF780508800103D8FDFFEE541FF531
:1002E7000C14F50DEF64016006741F250DF50DE97B
:1002F700C3940AE9500B25E02461F582E4340280B7
:100307000925E02461F582E43402F583740193251D
:100317000AF510E4933400F50FE9C394024006E5AB
:100327000954036008E51015107002150FAF0D7E14
:1003370000C3E5109FE50F9E50030203C1E5109F20
:10034700F510E50F9EF50F7901C20D750E01AF0E81
:100357001210C0920C200C05750B1D8003750B1E27
:10036700740E2512F58274003511F583E49354F069
:10037700F50CFF780408800103D8FDF50CAF0B7E60
:1003870000C3E5109FE50F9E402BE5109FF510E594
:100397000F9EF50F050EE9B50C08B20D200D0409E7
:1003A7008001091210BC920C200C05750B1D80CD25
:1003B700750B1E80C8E510020444C3E50D9510F5C2
:1003C7000DE50970057509E38002150974FD25120D
:1003D700F51274FF3511F511790CFE740E2512F51F
:1003E7008274003EF583E49354F0F50CFF7804081B
:1003F700800103D8FDF50CC20D7005750E0C800346
:10040700750E0D1210BC920C200C288021E50DD31F
:10041700950B4024E50D950BF50D150E200D0119D3
:10042700E9B50C02B20D1210BC920C200C05750B2D
:100437001D80DA750B1E80D5C3E50B950D04F50AF3
:10044700E975F00A84781AF6E975F00A8408A6F0C7
:10045700E50A75F00A8408F6E50A75F00A8408A625
:01046700F0A4
:010468002271
:04139C00AF657E00BB
:1013A000E4FDFCC3ED9FEC9E5015E4FBFA0BBB0083
:0F13B000010AEB64284A70F50DBD00010C80E4C2
:0113BF00220B
:100D2B00AE73AF747C007D0A12064B8F52AE73AF5D
:100D3B00747C007D0A12064B8D53AE71AF727C0032
:100D4B007D0A12064B8F54AE71AF727C007D0A1276
:100D5B00064B8D55AE77AF787C007D0A12064B8F14
:100D6B0056AE77AF787C007D0A12064B8D57AE6F6F
:100D7B00AF707C007D0A12064B8F5FAE6FAF707C3D
:100D8B00007D0A12064B8D60AE6DAF6E7C007D0A46
:100D9B0012064B8F61AE6DAF6E7C007D0A12064B57
:100DAB008D62AE6BAF6C7C007D0A12064B8F63AE0F
:0D0DBB006BAF6C7C007D0A12064B8D64222C
:1012C200EF75F00A84F541EF75F00A8485F042ED7E
:1012D20075F00A84F543ED75F00A8485F044EB75E8
:0E12E200F00A84F545EB75F00A8485F046228B
:1012F000EF75F00A84F57DEF75F00A8485F07EEDD8
:1013000075F00A84F579ED75F00A8485F07AEB754D
:0E131000F00A84F57BEB75F00A8485F07C22F0
:10116600E55975F00A84FFE55C75F006A42423F8BA
:10117600A607E55975F00A84AFF0E55C75F006A49C
:101186002424F8A607E55B75F00A84FFE55C75F094
:1011960006A42425F8A607E55B75F00A84AFF0E5FA
:0B11A6005C75F006A42426F8A60722C2
:100F9A00E4F9E990028F93FFF5B0E964016020E972
:100FAA00600764026003B9040B745F29F8E67004F1
:100FBA00F580800B745F29F8E690027B93F580E94F
:100FCA0064017025E522C39419500C8FB0745F290F
:100FDA00F8E6900285800FE990028F93F5B0745F6E
:100FEA0029F8E690027B93F58012139C09E96406BE
:020FFA0070A0E5
:010FFC0022D2
:100ED200E4F9E9C394045032E990028F93F5B0B972
:100EE200010B745229F8E690028593F580E96401BA
:100EF2006038E96003B9020B745229F8E67004F510
:100F0200808027745229F8E6801AE558700DE9901E
:100F1200029093F5B0900283E4800CE990029093E2
:100F2200F5B0E55890027B93F58012139C09E964B1
:030F320005709FA8
:010F35002299
:1011B100E4FFEF75F006A42423F8E675F00AA4FE17
:1011C100EF75F006A42424F8E62EFEEF25E024486E
:1011D100F8A606EF75F006A42425F8E675F00AA432
:1011E100FEEF75F006A42426F8E62EFEEF25E02496
:0811F10049F8A6060FBF05BA7C
:0111F90022D3
:10128600E4F9E990028F93F5B0741A29F8E6FF9015
:10129600027B93FEF580B90107EF90028593F580F6
:1012A600E96401600FE96003B90207E67004F5809E
:0B12B60080028E8012139C09B904C74F
:0112C100220A
:060E54008B158A168917B8
:100E5A00E4F518E55E14601A14602E2402705CE54D
:100E6A0018600464017009E522C39419504D802E5C
:100E7A00802CE51864026006E51864037009E5220F
:100E8A00C39419503680178015E51864046006E586
:100E9A001864057009E522C39419501F8000E518EB
:100EAA0090028F93F5B0AB15AA16A917851882750B
:100EBA00830012060C90027B93F58012139C05188E
:070ECA00E518C39406408CFB
:010ED10022FE
:100C7600E4F9E55E14601F14603824026003020D77
:100C86001EE960046401700CE522C3941940030256
:100C96000D1E80158013E964026005E9640370097E
:100CA600E522C3941950718000E990028F93F5B044
:100CB6008055E964046005E964057028E522C3945B
:100CC600195055E990028F93F5B0E964047013E565
:100CD6005C75F006A4242329F8E6FFB40102801F00
:100CE60080228023E990028F93F5B0E9640470179F
:100CF600E55C75F006A4242329F8E6FFB401057522
:100D060080778014EF800BE55C75F006A424232918
:100D1600F8E690027B93F58012139C09E96406605D
:040D260003020C7840
:010D2A0022A6
:100861008F158B168A178918EF75F006A429F9EAF6
:1008710035F0FA90000412060CB40107E515700377
:1008810030A018E515B4010330A110E515B4020339
:0E08910030A208E515B4030620A303020FFDF4
:10089F00E4F519E51990028F93F5B0E5196404702A
:1008AF002BE55C75F006A4AB162518F9E51735F0A6
:1008BF00FA7E00E92519F9EE3AFA1205F3B40105AB
:1008CF00758077800790027BE493F580E5196003CC
:1008DF00B40322E55C75F006A4AB162518F9E517ED
:1008EF0035F0FA7E00E92519F9EE3AFA1205F39080
:1008FF00028593F580E5196401600BE519640260C8
:10090F0005E519B40522E55C75F006A4AB162518AC
:10091F00F9E51735F0FA7E00E92519F9EE3AFA12E2
:10092F0005F390027B93F58012139C0519E519C30B
:07093F00940650030208A218
:01094600228E
:100FFD00E4F9E522C394195013E9640460028030CA
:10100D00E990028F93F5B0758079803CE9640460B6
:10101D000FE96405600AE990028F93F5B0E4F5805D
:10102D00B9040AE990028F93F5B0758079B9051866
:10103D00E990028F93F5B0E55C75F006A4242329A1
:10104D00F8E690027B93F58012139C09E964067013
:01105D00A1F1
:01105E00226F
:100AE800D20BC208C200E55F75F00AA42560F5695B
:100AF800E56175F00AA42562F56AE56375F00AA454
:100B08002564F56712105F8F47E54724FE601C14C3
:100B18006047147003020BA814606E1470E6055E3B
:100B2800E55E75F0038485F05E80D9E55E700A05A0
:100B380069E569B41803E4F569E55EB4010A056A74
:100B4800E56AB43C03E4F56AE55EB402B70567E517
:100B580067B43CB0E4F56780ABE55E700A1569E5FB
:100B680069B4FF03756917E55EB4010A156AE56A99
:100B7800B4FF03756A3BE55E640270881567E56734
:100B8800F4708175673B020B0C756F008569707591
:100B98006D00856A6E756B0085676C12131E800088
:080BA800C20BD200E4F55E224D
:1011FA00AB07E55675F00AA424D02557F566E552E3
:10120A0075F00AA42553F55A64027025E56654035D
:10121A00700AE56675F06484E5F0700FAF667E00CB
:10122A007C017D9012064BED4C70037F1D227F1CC2
:08123A0022EB90029493FF22C5
:10076E00E4F50CF50BF50AF509E55675F00AA42526
:10077E0057F566E55275F00AA42553F55AE55475FA
:10078E00F00AA42555F568750D07750E6CE56624FF
:10079E00D0FFE43407FEC3E50E9FE50D9E504DE5F8
:1007AE000E5403700EAE0DAF0EFC7D6412064BEDB3
:1007BE004C700FAE0DAF0E7C017D9012064BED4CC2
:1007CE007005E47F6E8003E47F6D7E01FDFCE50C19
:1007DE002FF50CE50B3EF50BE50A3DF50AE5093C58
:1007EE00F509050EE50E70A5050D80A1750D0075B8
:1007FE000E01C3E50E955AE50D94005027AF0E126B
:10080E0011FAE4FCFDFEE50C2FF50CEE350BF50BA5
:10081E00ED350AF50AEC3509F509050EE50E70D22F
:10082E00050D80CEE4FCFDFEE50C2568F50CEE35DD
:10083E000BF50BED350AF50AEC3509F509E47B07E6
:10084E00FAF9F8AF0CAE0BAD0AAC09121242AF03B7
:02085E008F58B1
:010860002275
:10137600E55675F00AA42557F566E55275F00AA4F8
:101386002553F55AE55475F00AA42555F568FBADC5
:061396005AAF660202A13D
:100A1A00C20BD208C20AC200E55675F00AA42557CD
:100A2A00F566E55275F00AA42553F55AE55475F0B2
:100A3A000AA42555F56885585D12105FEF24FE60FB
:100A4A001C146047147003020ADE1460681470E90B
:100A5A00055EE55E75F0038485F05E80DCE55EB4D4
:100A6A00020A0566E566B46403E4F566E55E700AA3
:100A7A00055AE55AB40D03E4F55AE55EB401BA0520
:100A8A0068E568B420B3E4F56880AEE55EB4020AAE
:100A9A001566E566B4FF03756663E55E7006D55AAA
:100AAA0003755A0CE55E6401708F1568E5687089F4
:100ABA0075681F8084757700856678757300855A16
:100ACA007475710085687212131EC208D20AC20BAD
:0D0ADA00755E0222C208D20AC20BE4F55E6E
:010AE70022EC
:100BB000E55C75F006A42423F8E675F00AA4FFE5C9
:100BC0005C75F006A42424F8E62FF559E55C75F071
:100BD00006A42425F8E675F00AA4FFE55C75F00686
:100BE000A42426F8E62FF55BD209E4F55E12105F27
:100BF0008F47E54724FE6013146031146060146071
:100C00004A1470E9055E535E0180E2E55E700C05F2
:100C100059E559C394184003E4F559E55EB401CD94
:100C2000055BE55BB43CC6E4F55B80C1E55E700A3C
:100C30001559E559B4FF03755917E55EB401AE15B2
:100C40005BE55BF470A7755B3B80A2C209D207E449
:100C5000F55EE55C75F006A42427F8760122755947
:100C600018E4F55BC209E55C75F006A42427F8E4F6
:060C7000F6D207F55E223A
:10111300300003020F9A300A03020ED23003030297
:10112300128630070B7B007A007923AF5C020861DB
:10113300300B11AB67AD6AAF691212C27B007A0044
:1011430079418012300812AB68AD5AAF661212F0C3
:101153007B007A007979020E543009061211661267
:031163000C7622E5
:10046900EF14B4080040030205F290048175F0030B
:10047900A4C58325F0C583730204B60205CC020521
:10048900E00205690205B702049902051B0205424B
:10049900300A03120A1A300003120AE8200703027D
:1004A90005F2C200C20AC203C207020BB020000350
:1004B90030070C300003E4F55CB200B2078022205B
:1004C9000A0330070C300A03E4F55CB20AB207806C
:1004D9001020030330070A300303E4F55CB203B2CA
:1004E90007A2A0B35003E4F55CA2A1B35003755C65
:1004F90001A2A2B35003755C02A2A3B35003755CB9
:1005090003A2A4B340030205F2D2A4E4F53F755C4B
:10051900042212076E200003300A05B200B20A2233
:10052900200303300A05B203B20A22200706200A73
:10053900030205F2B207B20A221213762000033031
:100549000305B200B20322200A03300305B20AB23E
:1005590003222007062003030205F2B207B2032291
:100569002007030205F2E55C75F006A42427F8E4E8
:10057900F6A2A0B35007300104D2A0C201A2A1B3D0
:100589005007300204D2A1C202A2A2B3500730041C
:1005990004D2A2C204A2A3B35007300504D2A3C255
:1005A90005A2A4B35043300640D2A4C206223007A4
:1005B90038E55C75F006A42427F8E6700376012275
:1005C900E4F62230070A055CE55CB40503E4F55C52
:1005D90030001675651222300709E55C7003755CF9
:0A05E90005155C300003756505225E
:10134B00758901758CD8758AF0D2AFD2A9D28C75FC
:10135B00B0FFD2A0D2A1D2A2D2A31211B112105FB0
:0B136B008F08E50860F412046980EFB1
:03000B00020947A0
:10094700C0E0C0F0C083C082C0D075D000C000C076
:1009570001C002C003C004C005C006C007758C6390
:10096700758AC00522E522B43203752200121439B4
:10097700120D2B121113E5276016E548B57011E427
:10098700B56F0DE549B56E08E4B56D04C2A0D20197
:10099700E52D6016E54AB57011E4B56F0DE54BB569
:1009A7006E08E4B56D04C2A1D202E5336016E54CCA
:1009B700B57011E4B56F0DE54DB56E08E4B56D047E
:1009C700C2A2D204E5396016E54EB57011E4B56FE1
:1009D7000DE54FB56E08E4B56D04C2A3D205E53F3A
:1009E7006016E550B57011E4B56F0DE551B56E08A9
:1009F700E4B56D04C2A4D206D007D006D005D00452
:100A0700D003D002D001D000D0D0D082D083D0F094
:030A1700D0E032FA
:100DD40002134BE493A3F8E493A34003F68001F2D7
:100DE40008DFF48029E493A3F85407240CC8C33320
:100DF400C4540F4420C8834004F456800146F6DFEF
:100E0400E4800B0102040810204080900F36E47E39
:100E1400019360BCA3FF543F30E509541FFEE493E3
:100E2400A360010ECF54C025E060A840B8E493A3AA
:100E3400FAE493A3F8E493A3C8C582C8CAC583CAD5
:100E4400F0A3C8C582C8CAC583CADFE9DEE780BE8D
:010F99000057
:1005F300BB010689828A83E0225002E722BBFE0206
:09060300E32289828A83E4932238
:10060C00BB010CE58229F582E5833AF583E02250A3
:10061C0006E92582F8E622BBFE06E92582F8E222ED
:0D062C00E58229F582E5833AF583E4932207
:10063900EF8DF0A4A8F0CF8CF0A428CE8DF0A42ED5
:02064900FE228F
:10064B00BC000BBE0029EF8DF084FFADF022E4CC93
:10065B00F875F008EF2FFFEE33FEEC33FCEE9DEC5C
:10066B00984005FCEE9DFE0FD5F0E9E4CEFD22EDA2
:10067B00F8F5F0EE8420D21CFEADF075F008EF2FEC
:10068B00FFED33FD4007985006D5F0F222C398FDDD
:05069B000FD5F0EA227A
:10124200C2D5E830E70FB2D5E4C39BFBE49AFAE4D7
:1012520099F9E498F8EC30E717B2D5121278120631
:10126200DCE4C39BFBE49AFAE499F9E498F880037E
:101272001206DC30D50DE4C39FFFE49EFEE49DFD23
:04128200E49CFC22CA
:1006A00075F008758200EF2FFFEE33FECD33CDCC11
:1006B00033CCC58233C5829BED9AEC99E582984094
:1006C0000CF582EE9BFEED9AFDEC99FC0FD5F0D671
:1006D000E4CEFBE4CDFAE4CCF9A88222B800C1B99B
:1006E0000059BA002DEC8BF084CFCECDFCE5F0CBD9
:1006F000F97818EF2FFFEE33FEED33FDEC33FCEB12
:1007000033FB10D703994004EB99FB0FD8E5E4F9CC
:10071000FA227818EF2FFFEE33FEED33FDEC33FCB9
:10072000C933C910D7059BE99A4007EC9BFCE99AAD
:10073000F90FD8E0E4C9FAE4CCFB2275F010EF2FF2
:10074000FFEE33FEED33FDCC33CCC833C810D707F2
:100750009BEC9AE899400AED9BFDEC9AFCE899F82D
:0E0760000FD5F0DAE4CDFBE4CCFAE4C8F922C0
:00000001FF
